{
  "_format": "hh-sol-artifact-1",
  "contractName": "Raffle",
  "sourceName": "contracts/raffle.sol",
  "abi": [
    {
      "inputs": [
        {
          "internalType": "uint256",
          "name": "_interval",
          "type": "uint256"
        },
        {
          "internalType": "uint256",
          "name": "_entryFee",
          "type": "uint256"
        },
        {
          "internalType": "address",
          "name": "_airnodeRrp",
          "type": "address"
        }
      ],
      "stateMutability": "nonpayable",
      "type": "constructor"
    },
    {
      "inputs": [],
      "name": "Raffle_RaffleNotOpen",
      "type": "error"
    },
    {
      "inputs": [],
      "name": "Raffle__TransferFailed",
      "type": "error"
    },
    {
      "inputs": [],
      "name": "Raffle_sendMoreToEnterRaffle",
      "type": "error"
    },
    {
      "anonymous": false,
      "inputs": [
        {
          "indexed": true,
          "internalType": "address",
          "name": "player",
          "type": "address"
        }
      ],
      "name": "RaffleEnter",
      "type": "event"
    },
    {
      "anonymous": false,
      "inputs": [
        {
          "indexed": true,
          "internalType": "bytes32",
          "name": "requestId",
          "type": "bytes32"
        },
        {
          "indexed": false,
          "internalType": "uint256",
          "name": "response",
          "type": "uint256"
        }
      ],
      "name": "ReceivedUint256",
      "type": "event"
    },
    {
      "anonymous": false,
      "inputs": [
        {
          "indexed": true,
          "internalType": "uint256",
          "name": "requestId",
          "type": "uint256"
        }
      ],
      "name": "RequestedRaffleWinner",
      "type": "event"
    },
    {
      "anonymous": false,
      "inputs": [
        {
          "indexed": true,
          "internalType": "bytes32",
          "name": "requestId",
          "type": "bytes32"
        }
      ],
      "name": "RequestedUint256",
      "type": "event"
    },
    {
      "anonymous": false,
      "inputs": [
        {
          "indexed": false,
          "internalType": "bool",
          "name": "timeElapsed",
          "type": "bool"
        }
      ],
      "name": "TimeElapsed",
      "type": "event"
    },
    {
      "anonymous": false,
      "inputs": [
        {
          "indexed": true,
          "internalType": "address",
          "name": "player",
          "type": "address"
        }
      ],
      "name": "WinnerPicked",
      "type": "event"
    },
    {
      "inputs": [],
      "name": "_qrngUint256",
      "outputs": [
        {
          "internalType": "uint256",
          "name": "",
          "type": "uint256"
        }
      ],
      "stateMutability": "view",
      "type": "function"
    },
    {
      "inputs": [],
      "name": "airnode",
      "outputs": [
        {
          "internalType": "address",
          "name": "",
          "type": "address"
        }
      ],
      "stateMutability": "view",
      "type": "function"
    },
    {
      "inputs": [],
      "name": "airnodeRrp",
      "outputs": [
        {
          "internalType": "contract IAirnodeRrpV0",
          "name": "",
          "type": "address"
        }
      ],
      "stateMutability": "view",
      "type": "function"
    },
    {
      "inputs": [
        {
          "internalType": "uint256",
          "name": "_entryFee",
          "type": "uint256"
        }
      ],
      "name": "changeEntryFee",
      "outputs": [],
      "stateMutability": "nonpayable",
      "type": "function"
    },
    {
      "inputs": [
        {
          "internalType": "uint256",
          "name": "_interval",
          "type": "uint256"
        }
      ],
      "name": "changeInterval",
      "outputs": [],
      "stateMutability": "nonpayable",
      "type": "function"
    },
    {
      "inputs": [
        {
          "internalType": "address",
          "name": "_manager",
          "type": "address"
        }
      ],
      "name": "changeManager",
      "outputs": [],
      "stateMutability": "nonpayable",
      "type": "function"
    },
    {
      "inputs": [],
      "name": "checkUpkeep",
      "outputs": [],
      "stateMutability": "nonpayable",
      "type": "function"
    },
    {
      "inputs": [],
      "name": "endpointIdUint256",
      "outputs": [
        {
          "internalType": "bytes32",
          "name": "",
          "type": "bytes32"
        }
      ],
      "stateMutability": "view",
      "type": "function"
    },
    {
      "inputs": [],
      "name": "enterRaffle",
      "outputs": [],
      "stateMutability": "payable",
      "type": "function"
    },
    {
      "inputs": [
        {
          "internalType": "uint256",
          "name": "numberOfEntries",
          "type": "uint256"
        }
      ],
      "name": "enterRaffleMultipleTimes",
      "outputs": [],
      "stateMutability": "payable",
      "type": "function"
    },
    {
      "inputs": [],
      "name": "entryFee",
      "outputs": [
        {
          "internalType": "uint256",
          "name": "",
          "type": "uint256"
        }
      ],
      "stateMutability": "view",
      "type": "function"
    },
    {
      "inputs": [
        {
          "internalType": "bytes32",
          "name": "",
          "type": "bytes32"
        }
      ],
      "name": "expectingRequestWithIdToBeFulfilled",
      "outputs": [
        {
          "internalType": "bool",
          "name": "",
          "type": "bool"
        }
      ],
      "stateMutability": "view",
      "type": "function"
    },
    {
      "inputs": [
        {
          "internalType": "bytes32",
          "name": "requestId",
          "type": "bytes32"
        },
        {
          "internalType": "bytes",
          "name": "data",
          "type": "bytes"
        }
      ],
      "name": "fulfillUint256",
      "outputs": [],
      "stateMutability": "nonpayable",
      "type": "function"
    },
    {
      "inputs": [],
      "name": "getEntryFee",
      "outputs": [
        {
          "internalType": "uint256",
          "name": "",
          "type": "uint256"
        }
      ],
      "stateMutability": "view",
      "type": "function"
    },
    {
      "inputs": [],
      "name": "getInterval",
      "outputs": [
        {
          "internalType": "uint256",
          "name": "",
          "type": "uint256"
        }
      ],
      "stateMutability": "view",
      "type": "function"
    },
    {
      "inputs": [],
      "name": "getManager",
      "outputs": [
        {
          "internalType": "address",
          "name": "",
          "type": "address"
        }
      ],
      "stateMutability": "view",
      "type": "function"
    },
    {
      "inputs": [],
      "name": "getPlayers",
      "outputs": [
        {
          "internalType": "address[]",
          "name": "",
          "type": "address[]"
        }
      ],
      "stateMutability": "view",
      "type": "function"
    },
    {
      "inputs": [],
      "name": "getRaffleState",
      "outputs": [
        {
          "internalType": "enum Raffle.RaffleState",
          "name": "",
          "type": "uint8"
        }
      ],
      "stateMutability": "view",
      "type": "function"
    },
    {
      "inputs": [],
      "name": "getTimeAfterOpen",
      "outputs": [
        {
          "internalType": "uint256",
          "name": "",
          "type": "uint256"
        }
      ],
      "stateMutability": "view",
      "type": "function"
    },
    {
      "inputs": [],
      "name": "getWinner",
      "outputs": [
        {
          "internalType": "address",
          "name": "",
          "type": "address"
        }
      ],
      "stateMutability": "view",
      "type": "function"
    },
    {
      "inputs": [],
      "name": "interval",
      "outputs": [
        {
          "internalType": "uint256",
          "name": "",
          "type": "uint256"
        }
      ],
      "stateMutability": "view",
      "type": "function"
    },
    {
      "inputs": [],
      "name": "lastBlock",
      "outputs": [
        {
          "internalType": "uint256",
          "name": "",
          "type": "uint256"
        }
      ],
      "stateMutability": "view",
      "type": "function"
    },
    {
      "inputs": [],
      "name": "lastTime",
      "outputs": [
        {
          "internalType": "uint256",
          "name": "",
          "type": "uint256"
        }
      ],
      "stateMutability": "view",
      "type": "function"
    },
    {
      "inputs": [],
      "name": "lastWinner",
      "outputs": [
        {
          "internalType": "uint256",
          "name": "",
          "type": "uint256"
        }
      ],
      "stateMutability": "view",
      "type": "function"
    },
    {
      "inputs": [],
      "name": "manager",
      "outputs": [
        {
          "internalType": "address",
          "name": "",
          "type": "address"
        }
      ],
      "stateMutability": "view",
      "type": "function"
    },
    {
      "inputs": [],
      "name": "nftPrize",
      "outputs": [
        {
          "internalType": "contract IERC721",
          "name": "",
          "type": "address"
        }
      ],
      "stateMutability": "view",
      "type": "function"
    },
    {
      "inputs": [],
      "name": "nftTokenId",
      "outputs": [
        {
          "internalType": "uint256",
          "name": "",
          "type": "uint256"
        }
      ],
      "stateMutability": "view",
      "type": "function"
    },
    {
      "inputs": [
        {
          "internalType": "uint256",
          "name": "",
          "type": "uint256"
        }
      ],
      "name": "players",
      "outputs": [
        {
          "internalType": "address",
          "name": "",
          "type": "address"
        }
      ],
      "stateMutability": "view",
      "type": "function"
    },
    {
      "inputs": [],
      "name": "recipient",
      "outputs": [
        {
          "internalType": "address",
          "name": "",
          "type": "address"
        }
      ],
      "stateMutability": "view",
      "type": "function"
    },
    {
      "inputs": [
        {
          "internalType": "contract IERC721",
          "name": "_nftPrize",
          "type": "address"
        },
        {
          "internalType": "uint256",
          "name": "_nftTokenId",
          "type": "uint256"
        }
      ],
      "name": "setNftPrize",
      "outputs": [],
      "stateMutability": "nonpayable",
      "type": "function"
    },
    {
      "inputs": [
        {
          "internalType": "address",
          "name": "_recipient",
          "type": "address"
        }
      ],
      "name": "setRecipient",
      "outputs": [],
      "stateMutability": "nonpayable",
      "type": "function"
    },
    {
      "inputs": [
        {
          "internalType": "address",
          "name": "_airnode",
          "type": "address"
        },
        {
          "internalType": "bytes32",
          "name": "_endpointIdUint256",
          "type": "bytes32"
        },
        {
          "internalType": "address",
          "name": "_sponsorWallet",
          "type": "address"
        }
      ],
      "name": "setRequestParameters",
      "outputs": [],
      "stateMutability": "nonpayable",
      "type": "function"
    },
    {
      "inputs": [],
      "name": "sponsorWallet",
      "outputs": [
        {
          "internalType": "address",
          "name": "",
          "type": "address"
        }
      ],
      "stateMutability": "view",
      "type": "function"
    },
    {
      "inputs": [],
      "name": "winner",
      "outputs": [
        {
          "internalType": "address payable",
          "name": "",
          "type": "address"
        }
      ],
      "stateMutability": "view",
      "type": "function"
    },
    {
      "inputs": [],
      "name": "withdrawFees",
      "outputs": [],
      "stateMutability": "nonpayable",
      "type": "function"
    }
  ],
  "bytecode": "0x60a060405234801561001057600080fd5b5060405161148838038061148883398101604081905261002f916100da565b6001600160a01b0381166080819052604051632b77c09f60e21b81523060048201526001602482015282919063addf027c90604401600060405180830381600087803b15801561007e57600080fd5b505af1158015610092573d6000803e3d6000fd5b505060008054336001600160a01b031991821681179092556001805490911690911790555050506004929092556008555042600555436006556009805460ff19169055610120565b6000806000606084860312156100ef57600080fd5b83516020850151604086015191945092506001600160a01b038116811461011557600080fd5b809150509250925092565b60805161133f61014960003960008181610367015281816107030152610f33015261133f6000f3fe6080604052600436106102045760003560e01c80638b5b9ccc11610118578063a8a05701116100a0578063dfbf53ae1161006f578063dfbf53ae14610596578063e586a4f0146105b6578063f71d96cb146105cb578063f7d978a2146105eb578063fe1881841461060b57600080fd5b8063a8a0570114610525578063bf90fb4e14610545578063d500958414610565578063dc7693241461058357600080fd5b8063947a36fb116100e7578063947a36fb146104a0578063a13abdad146104b6578063a36ff4d8146104cb578063a3fbbaae146104f0578063a48c483b1461051057600080fd5b80638b5b9ccc146104355780638e7ea5b21461045757806391ad27b41461047557806393e9a0841461048a57600080fd5b806363c756071161019b5780637411c8ef1161016a5780637411c8ef146103895780637bdf2525146103a95780637e830574146103c9578063806b984f146103df578063851244f7146103f557600080fd5b806363c75607146102ff57806366d003ac1461031f5780636ec3c3931461033f57806371bab6661461035557600080fd5b80633718d90a116101d75780633718d90a146102725780633bbed4a014610292578063476343ee146102b2578063481c6a75146102c757600080fd5b8063072ea61c1461020957806307b9fc5714610232578063115cbaf5146102485780632cfcc53914610268575b600080fd5b34801561021557600080fd5b5061021f60085481565b6040519081526020015b60405180910390f35b34801561023e57600080fd5b5061021f600a5481565b34801561025457600080fd5b5060095460ff16604051610229919061107a565b610270610621565b005b34801561027e57600080fd5b5061027061028d3660046110a2565b6106f8565b34801561029e57600080fd5b506102706102ad366004611133565b610834565b3480156102be57600080fd5b50610270610880565b3480156102d357600080fd5b506000546102e7906001600160a01b031681565b6040516001600160a01b039091168152602001610229565b34801561030b57600080fd5b5061027061031a366004611157565b610921565b34801561032b57600080fd5b506001546102e7906001600160a01b031681565b34801561034b57600080fd5b5061021f600c5481565b34801561036157600080fd5b506102e77f000000000000000000000000000000000000000000000000000000000000000081565b34801561039557600080fd5b50600e546102e7906001600160a01b031681565b3480156103b557600080fd5b506102706103c4366004611170565b610950565b3480156103d557600080fd5b5061021f600f5481565b3480156103eb57600080fd5b5061021f60065481565b34801561040157600080fd5b50610425610410366004611157565b600d6020526000908152604090205460ff1681565b6040519015158152602001610229565b34801561044157600080fd5b5061044a6109b8565b60405161022991906111b2565b34801561046357600080fd5b506003546001600160a01b03166102e7565b34801561048157600080fd5b5060045461021f565b34801561049657600080fd5b5061021f60055481565b3480156104ac57600080fd5b5061021f60045481565b3480156104c257600080fd5b50610270610a1a565b3480156104d757600080fd5b506009546102e79061010090046001600160a01b031681565b3480156104fc57600080fd5b5061027061050b366004611133565b610a91565b34801561051c57600080fd5b5061021f610add565b34801561053157600080fd5b506102706105403660046111ff565b610af2565b34801561055157600080fd5b50600b546102e7906001600160a01b031681565b34801561057157600080fd5b506000546001600160a01b03166102e7565b610270610591366004611157565b610b42565b3480156105a257600080fd5b506003546102e7906001600160a01b031681565b3480156105c257600080fd5b5060085461021f565b3480156105d757600080fd5b506102e76105e6366004611157565b610c3f565b3480156105f757600080fd5b50610270610606366004611157565b610c69565b34801561061757600080fd5b5061021f60075481565b6008543410156106445760405163e405d1fd60e01b815260040160405180910390fd5b600060095460ff16600181111561065d5761065d611064565b1461067b57604051636eac21ed60e01b815260040160405180910390fd5b6002805460018101825560009182527f405787fa12a823e0f2b7631cc41b3ba8828b3321ca811111fa75cd3aa3bb5ace0180546001600160a01b0319163390811790915560405190917f0805e1d667bddb8a95f0f09880cf94f403fb596ce79928d9f29b74203ba284d491a26002546004116106f657426005555b565b336001600160a01b037f0000000000000000000000000000000000000000000000000000000000000000161461076e5760405162461bcd60e51b8152602060048201526016602482015275043616c6c6572206e6f74204169726e6f6465205252560541b60448201526064015b60405180910390fd5b6000838152600d602052604090205460ff166107c35760405162461bcd60e51b81526020600482015260146024820152732932b8bab2b9ba1024a2103737ba1035b737bbb760611b6044820152606401610765565b6000838152600d60205260408120805460ff191690556107e582840184611157565b600c81905590506107f4610c98565b837f1ca47bacd454c26163f84eff4aa514e291ba9fa67ad6029e39567c122bbed30f8260405161082691815260200190565b60405180910390a250505050565b6000546001600160a01b0316331461085e5760405162461bcd60e51b81526004016107659061122b565b600180546001600160a01b0319166001600160a01b0392909216919091179055565b6000546001600160a01b031633146108aa5760405162461bcd60e51b81526004016107659061122b565b6001546040516000916001600160a01b03169047908381818185875af1925050503d80600081146108f7576040519150601f19603f3d011682016040523d82523d6000602084013e6108fc565b606091505b505090508061091e5760405163a1d04b3960e01b815260040160405180910390fd5b50565b6000546001600160a01b0316331461094b5760405162461bcd60e51b81526004016107659061122b565b600455565b6000546001600160a01b0316331461097a5760405162461bcd60e51b81526004016107659061122b565b60098054610100600160a81b0319166101006001600160a01b0395861602179055600a91909155600b80546001600160a01b03191691909216179055565b60606002805480602002602001604051908101604052809291908181526020018280548015610a1057602002820191906000526020600020905b81546001600160a01b031681526001909101906020018083116109f2575b5050505050905090565b600454600554610a2a9042611288565b10158015610a4e5750600060095460ff166001811115610a4c57610a4c611064565b145b156106f657610a5b610e36565b604051600181527f2f36df76b4ab5dd8c8344bafd4c7aa2f710b5084b73f058a02b5a19d3ced30fa9060200160405180910390a1565b6000546001600160a01b03163314610abb5760405162461bcd60e51b81526004016107659061122b565b600080546001600160a01b0319166001600160a01b0392909216919091179055565b600060055442610aed9190611288565b905090565b6000546001600160a01b03163314610b1c5760405162461bcd60e51b81526004016107659061122b565b600e80546001600160a01b0319166001600160a01b039390931692909217909155600f55565b600081600854610b5291906112a1565b905080341015610b755760405163e405d1fd60e01b815260040160405180910390fd5b600060095460ff166001811115610b8e57610b8e611064565b14610bac57604051636eac21ed60e01b815260040160405180910390fd5b60005b82811015610c2b576002805460018101825560009182527f405787fa12a823e0f2b7631cc41b3ba8828b3321ca811111fa75cd3aa3bb5ace0180546001600160a01b0319163390811790915560405190917f0805e1d667bddb8a95f0f09880cf94f403fb596ce79928d9f29b74203ba284d491a2600101610baf565b50600254600411610c3b57426005555b5050565b60028181548110610c4f57600080fd5b6000918252602090912001546001600160a01b0316905081565b6000546001600160a01b03163314610c935760405162461bcd60e51b81526004016107659061122b565b600855565b600254600003610cea5760405162461bcd60e51b815260206004820152601860248201527f4e6f20706c617965727320696e2074686520726166666c6500000000000000006044820152606401610765565b600254600c54600091610cfc916112b8565b9050600060028281548110610d1357610d136112da565b6000918252602082200154600380546001600160a01b0319166001600160a01b0390921691821790559150604051908082528060200260200182016040528015610d67578160200160208202803683370190505b508051610d7c91600291602090910190610fea565b506009805460ff191690554260055543600655600e54600f54604051632142170760e11b81523060048201526001600160a01b03848116602483015260448201929092529116906342842e0e90606401600060405180830381600087803b158015610de657600080fd5b505af1158015610dfa573d6000803e3d6000fd5b50506040516001600160a01b03841692507f5b690ec4a06fe979403046eaeea5b3ce38524683c3001f662c8b5a829632f7df9150600090a25050565b6000546001600160a01b03163314610e605760405162461bcd60e51b81526004016107659061122b565b600060095460ff166001811115610e7957610e79611064565b14610e9757604051636eac21ed60e01b815260040160405180910390fd5b600254600003610eba57604051636eac21ed60e01b815260040160405180910390fd5b6009805460ff191660011790819055600a54600b54604051636e6be03f60e01b81526001600160a01b03610100909404841660048201526024810192909252306044830181905290831660648301526084820152631b8c6c8560e11b60a482015260e060c4820152600060e482018190526106f69290917f000000000000000000000000000000000000000000000000000000000000000090911690636e6be03f90610104016020604051808303816000875af1158015610f7f573d6000803e3d6000fd5b505050506040513d601f19601f82011682018060405250810190610fa391906112f0565b6000818152600d6020526040808220805460ff191660011790555191925082917fcba2da2f3c0c732a104019a3104936397dde7343964c1518ceb760052e4537b19190a250565b82805482825590600052602060002090810192821561103f579160200282015b8281111561103f57825182546001600160a01b0319166001600160a01b0390911617825560209092019160019091019061100a565b5061104b92915061104f565b5090565b5b8082111561104b5760008155600101611050565b634e487b7160e01b600052602160045260246000fd5b602081016002831061109c57634e487b7160e01b600052602160045260246000fd5b91905290565b6000806000604084860312156110b757600080fd5b83359250602084013567ffffffffffffffff808211156110d657600080fd5b818601915086601f8301126110ea57600080fd5b8135818111156110f957600080fd5b87602082850101111561110b57600080fd5b6020830194508093505050509250925092565b6001600160a01b038116811461091e57600080fd5b60006020828403121561114557600080fd5b81356111508161111e565b9392505050565b60006020828403121561116957600080fd5b5035919050565b60008060006060848603121561118557600080fd5b83356111908161111e565b92506020840135915060408401356111a78161111e565b809150509250925092565b6020808252825182820181905260009190848201906040850190845b818110156111f35783516001600160a01b0316835292840192918401916001016111ce565b50909695505050505050565b6000806040838503121561121257600080fd5b823561121d8161111e565b946020939093013593505050565b60208082526027908201527f4f6e6c7920746865206d616e616765722063616e2063616c6c207468697320666040820152663ab731ba34b7b760c91b606082015260800190565b634e487b7160e01b600052601160045260246000fd5b8181038181111561129b5761129b611272565b92915050565b808202811582820484141761129b5761129b611272565b6000826112d557634e487b7160e01b600052601260045260246000fd5b500690565b634e487b7160e01b600052603260045260246000fd5b60006020828403121561130257600080fd5b505191905056fea264697066735822122002b240c9d788086d96f0b94af0a269fcf96ca2e0ad091ff757cdb389251e3ee764736f6c63430008180033",
  "linkReferences": {},
  "deployedLinkReferences": {}
}